:020000040800F2
:10000000B0040020D9010008851000088110000804
:1000100083100008E5020008091300080000000032
:10002000000000000000000000000000891000082F
:100030009903000800000000871000088B100008DA
:10004000F3010008F3010008F3010008F3010008C0
:10005000F3010008F3010008F3010008F3010008B0
:10006000F3010008F3010008F3010008F3010008A0
:10007000F3010008F3010008F3010008F301000890
:10008000E9020008F3010008F3010008F301000889
:10009000F3010008F3010008F3010008F301000870
:1000A000F3010008F3010008F3010008F301000860
:1000B000F3010008F3010008F3010008F301000850
:1000C000F3010008F3010008F3010008F301000840
:1000D000F3010008F3010008F3010008F301000830
:1000E000F3010008F3010008F3010008F301000820
:1000F000F3010008F3010008F3010008F301000810
:10010000F3010008F3010008F3010008F3010008FF
:10011000F3010008F3010008F3010008F3010008EF
:10012000F3010008F3010008F3010008F3010008DF
:10013000F30100080000000000000000F3010008C7
:10014000F3010008F3010008F3010008F3010008BF
:10015000F3010008F3010008F3010008F3010008AF
:10016000F3010008F3010008F3010008F30100089F
:10017000F3010008F3010008F3010008000000008B
:1001800000000000F3010008000000000000000073
:10019000F30100080000000000000000F301000867
:1001A000000000000000000000000000F301000853
:1001B000F3010008F3010008F3010008F30100084F
:1001C000F3010008DFF80CD000F07AF8004800478F
:1001D00049130008B004002006488047064800473D
:1001E000FEE7FEE7FEE7FEE7FEE7FEE7FEE7FEE7E7
:1001F000FEE7FEE705110008C50100082DE9F05FE4
:100200000546002092469B46884606468146402485
:100210001BE0284641464746224600F041F8534637
:100220005A46C01A914110D311461846224600F092
:1002300028F82D1A67EB01084F46224601200021BD
:1002400000F01FF817EB00094E41201EA4F1010435
:10025000DFDC484631462A464346BDE8F09FD2B22D
:1002600001E000F8012B491EFBD270470022F6E79F
:1002700010B513460A4604461946FFF7F0FF20461C
:1002800010BD202A04DB203A00FA02F1002070475A
:100290009140C2F1200320FA03F3194390407047C4
:1002A000202A04DB203A21FA02F00021704721FACB
:1002B00002F3D040C2F12002914008431946704732
:1002C000064C074D06E0E06840F0010394E80700A3
:1002D00098471034AC42F6D3FFF778FFE4130008D8
:1002E00004140008FEE70000014800F057B80000C1
:1002F0005000002001681823CAB2103AB2FBF3F292
:10030000054B6FF30901032A9B5CC36500D9091DE6
:100310008165084670470000C413000810B5014607
:1003200000208B698A6A4FF0C07453B1B3F5005F47
:1003300015D072B1012A0CD0022A0AD0032A09D1A1
:1003400004E01AB1012A06D0022A03D1C96AC90100
:1003500000D5012010BDC96AA142FAD010BD002A03
:10036000F7D0012AF2D0022AF3D0032AF3D010BD2D
:1003700030B50468256825F480252560046863602D
:100380008368402B036803D099600068C26030BD69
:100390009A600068C16030BD704770472DE9F8432E
:1003A00004464FF00009CDF8009063484FF4165111
:1003B000A56D0068B0FBF1F72E6894F85C1008207A
:1003C00000FA01F131420FD021680A6852070BD5BB
:1003D0000A6822F004020A6094F85C108840A86061
:1003E000606D40F00100606594F85C104FF001080A
:1003F00008FA01F0304208D021684969090604D59D
:10040000A860606D40F00200606594F85C10042004
:100410008840304208D021680968890704D5A8605F
:10042000606D40F00400606594F85C101020884016
:10043000304218D021680968090714D5A8602068DF
:100440000168490304D50068000308D5A16C07E0E2
:100450000168C90503D4016821F008010160216C1D
:1004600009B12046884794F85C102020884030422B
:1004700031D021680968C9062DD5A86094F83500E7
:1004800005282068016806D0490347D500680003A5
:100490001DD4616C1CE021F01601016020684169E7
:1004A00021F080014161206C08B9A06C20B1206866
:1004B000016821F00801016094F85C103F20884039
:1004C000A86084F8349084F83580216D1FE0E16BDA
:1004D00009B120468847606D00282BD0606DC007A9
:1004E00014D0052084F835002068016821F001014E
:1004F00001600098401C0090B84203D82068006852
:10050000C007F6D184F8349084F83580E16C002976
:1005100010D001B02046BDE8F04308470168C90586
:10052000D5D4016821F01001016084F8349084F87A
:100530003580CCE7BDE8F8830C0000202DE9F041C0
:10054000044600F071F906465CB1002584F8345089
:10055000022084F835002068016821F00101016063
:100560000DE00120BDE8F08100F05EF9801B052858
:1005700005D920206065032084F83500F2E7206863
:100580000068C007F0D12268116820480140D4E912
:1005900001031843D4E9033633431843636918430E
:1005A000A3691843E3691843236A18430843616A3F
:1005B000042903D1D4E90B131943084310602068C0
:1005C0004069666A20F0070130460E43012704287F
:1005D0000CD1A06A0643E06A40B12046FFF79EFEB8
:1005E00020B14020606584F83570BAE72068466124
:1005F0002046FFF77FFE94F85C203F219140816008
:10060000656584F835700020ACE700003F8010F08D
:100610002DE9F0410446866D90F83400002501284C
:100620000DD0012084F8340094F835700020012F9B
:1006300007D084F8340002252846BDE8F081022066
:10064000FBE7022784F8357060652046FFF790FECF
:1006500094F85C103F208840B0602068016841F049
:1006600016010160206C20B12068016841F008018A
:1006700001602068016841F001010160DCE70000D1
:100680002DE9F84F00224FF0010803254FF00F0E1F
:100690000B6808FA02F42340A3426ED14E68012E83
:1006A00005D0022E03D0112E01D0122E12D1866851
:1006B0004FEA420C05FA0CF7BE43CF6807FA0CF775
:1006C000374387604668A6430C79C4F3001494400E
:1006D00034434460C668570005FA07FC8C6826EA74
:1006E0000C06BC403443C4604C68022C01D0122C70
:1006F00013D1D40800EB8404A346D4F82090540707
:100700004FEAD46A0EFA0AF629EA06090E6906FAD1
:100710000AF646EA0906CBF8206006680C7926EA54
:100720000C0604F00304BC40344304604C68E4004D
:1007300060D5334C266846F480462660246822F053
:10074000030604F4804400942E4C3444A446D4F8A8
:1007500008489607370F0EFA07F6B4432A4EB04200
:1007600001D100261FE0294EB04201D101261AE036
:10077000274EB04202D1022615E03BE0254EB042A2
:1007800001D103260FE0244EB04201D104260AE035
:10079000224EB04201D1052605E0214EB04201D1E2
:1007A000062600E00726BE402643CCF808681D4E0A
:1007B00034684F689C43FF0300D51C433460194ED6
:1007C000361D34684F689C43BF0300D51C4334601A
:1007D000144E083634684F689C43FF0200D51C4312
:1007E0003460104E0C3634684F689C43BF0200D50D
:1007F0001C433460521C102AFFF44AAFBDE8F88F46
:100800004438024000300140000002400004024031
:1008100000080240000C0240001002400014024098
:1008200000180240003C0140014880687047000009
:1008300000000020024881680278114481607047FE
:10084000000000200B4810B5016841F40071016000
:10085000016841F480610160016841F480710160C8
:10086000032000F06FF8002000F006F800F024F8F4
:10087000002010BD003C024070B50D4D04464FF401
:100880007A712878B1FBF0F00A490968B1FBF0F001
:1008900000F012FB48B9102C07D200222146501E4E
:1008A00000F030F800206C6070BD012070BD0000C9
:1008B000000000200C0000200A4808B5016841F43F
:1008C00080410160006800F4804000900548001FEE
:1008D000016841F080510160006800F08050009094
:1008E00008BD000044380240002809DB00F01F0268
:1008F000012191404009800000F1E020C0F8001182
:1009000070470000F0B40E4B1B680C46C3F3022383
:10091000C3F10705042D00D90425191D072901D2AB
:10092000002300E0DB1E012606FA05F1491E2140E6
:1009300099409E40761E16403143F0BC00F0E5BC65
:100940000CED00E0064900F0070208684FF6FF03CF
:10095000184040EA0220034A104308607047000034
:100960000CED00E00000FA052DE9F0470E46050009
:1009700065D0DFF81481D8F80000F7B200F00F005E
:10098000B04207D288F80070D8F8000000F00F00DD
:10099000B04254D128683D4C810712D5400703D599
:1009A000206840F4E05020602878000703D52068D4
:1009B00040F4604020602068A96820F0F0000843FF
:1009C00020602878C0072DD0304968680839012890
:1009D00012D0022813D0032811D0096889070029F2
:1009E0002DDA216821F0030101432160FFF71CFF8C
:1009F000814641F2883A0EE009688903EFE7096809
:100A00008901ECE7FFF710FFA0EB0901514502D97E
:100A10000320BDE8F0872068696800F00C00B0EBA7
:100A2000810FEFD1D8F80010404601F00F01B1421C
:100A300007D90770006800F00F00B04201D0012014
:100A4000E7E72878400705D52068E96820F4E050FA
:100A5000084320602878000706D52068296920F41B
:100A6000604040EAC100206000F038F82168084A80
:100A7000C1F30311515CC84006490860064800688C
:100A8000FFF7FAFE0020C4E7003C024008380240AD
:100A9000CC1300080C000020040000200448054985
:100AA00000680968044AC1F38221515CC84070475C
:100AB0000C00002008380240DC13000804480549F7
:100AC00000680968044AC1F34231515CC84070476C
:100AD0000C00002008380240DC130008224810B542
:100AE000006810F00C02214815D02149042A11D0C9
:100AF0001D4C241F082A0FD00C2A0CD12268236811
:100B000002F03F025B0221D52068C0F38810A0FBF1
:100B1000010120E0084610BD2268236802F03F0270
:100B20005B0205D52068C0F38810A0FB010104E03A
:100B30002168C1F38811A1FB00010023FFF75EFBD0
:100B40002168C1F30141491C49000AE02168C1F351
:100B50008811A1FB00010023FFF750FB2168C1F3BE
:100B60000271B0FBF1F010BD083802400024F4001F
:100B700040787D012DE9F84F0546DFF828B300786D
:100B8000ABF10407C007A7F1040451D0DBF8001053
:100B90005846C1F3810101290FD00168C1F38101D9
:100BA000022902D13968490207D40068C0F38100E4
:100BB000032809D13868400206D52068800337D55C
:100BC0006868002872D033E06868B0F5803F10D0C4
:100BD000B0F5A02F206810D020F48030206020686D
:100BE00020F4802020606868A8B1FFF71DFE06464B
:100BF0000DE0206840F48030F4E740F4802020606D
:100C0000F7E700BFFFF710FE801B642878D8206844
:100C10008003F7D50CE0FFF707FE064605E000BFAE
:100C2000FFF702FE801B6428F0D820688003F7D409
:100C30002878DFF8749280074FF0000A46D5DBF879
:100C40000010584611F00C0F0FD00168C1F381015C
:100C5000022902D13968490207D50068C0F3810032
:100C6000032809D13868400206D42068800715D5CA
:100C7000E86801281AD111E0E868C0B10120C9F87C
:100C80000000FFF7D1FD064605E000BFFFF7CCFDF1
:100C9000801B0228BAD820688007F7D52068296908
:100CA00020F0F80040EAC10020600FE0F7E0C9F84A
:100CB00000A0FFF7B9FD064605E000BFFFF7B4FD51
:100CC000801B02281CD820688007F7D428780007EA
:100CD00027D5DFF8D0817548696908F16C0881B1C2
:100CE00001210160FFF7A0FD064604E0FFF79CFD2F
:100CF000801B022804D8D8F800008007F6D510E041
:100D000089E0C0F800A0FFF78FFD064605E000BFB0
:100D1000FFF78AFD801B02287DD8D8F800008007E5
:100D2000F6D42878400769D55E484FF0000838307F
:100D30000068C0000BD45B483830016841F0805136
:100D4000016000684FF0010800F080500090584E9C
:100D50003068C00511D4306840F480703060FFF70F
:100D600063FD009006E000BFFFF75EFD0099401AAA
:100D7000022850D83068C005F6D54A4EA8686836B3
:100D800001280FD00528306810D020F00100306015
:100D9000306820F004003060A868B8B1FFF744FD67
:100DA00000900FE0306840F00100F4E740F00400EC
:100DB0003060F7E7FFF738FD0099411A41F28830BB
:100DC000814264D830688007F4D50EE0FFF72CFD2F
:100DD000009007E0FFF728FD0099411A41F28830A2
:100DE000814254D830688007F4D4B8F1000F05D0A0
:100DF0002C483830016821F080510160A869A8B3FF
:100E0000DBF80010C1F38101022948D00228C9F89B
:100E100060A005D000E03AE0FFF706FD054639E0A6
:100E2000FFF702FD064604E0FFF7FEFC801B0228E8
:100E30002DD820688001F7D4F5E907010843E96857
:100E40001C4A490802EB0141AA6841EA82110843A1
:100E5000297C40EA0160297D40EA01703860012068
:100E6000C9F86000FFF7E0FC054606E015E000BFAA
:100E7000FFF7DAFC401B022809D820688001F7D56B
:100E80000BE000BFFFF7D0FC401B022802D9032073
:100E9000BDE8F88F20688001F4D40020F8E7012035
:100EA000F6E700000838024000004742800E474243
:100EB000007000400000FFFF10B5401EB0F1807FC1
:100EC00001D3012010BD4FF0E02460610F216017B5
:100ED00000F01BFA0020A06107202061002010BD57
:100EE000704770B5040004D094F83900002510B1A3
:100EF00006E0012070BD84F83850204600F022F84A
:100F0000242084F839002068C16821F40051C160B0
:100F1000204600F065F92068016921F490410161E3
:100F20002068416921F02A0141612068C16841F4CB
:100F30000051C160E563202084F8390084F83A004C
:100F4000002070BD70B586B0064614216846FFF7D4
:100F50008DF91F493068884237D11E480025016845
:100F600041F400310160006800F400300590194838
:100F70001038016841F0010101600068694600F025
:100F8000010005900C2000900220CDE9010503200E
:100F90000390072004901048FFF772FB104C0F4895
:100FA00020604FF00060C4E901054014C4E903501B
:100FB0006561A561E561256220466562FFF7BEFABD
:100FC00008B1FFF7EAF97463A66306B070BD0000CC
:100FD0000044004040380240000002408860024067
:100FE00050000020F8B5044690F83A0020283CD183
:100FF000C1B3BAB394F83800012836D0012084F880
:101000003800A162A2850025E563222084F83A0019
:10101000636B1748D863636B16481864636B164894
:10102000D864606B134605650846666B2168024606
:101030003046091DFFF7ECFA20680168416800910D
:1010400084F83850C16841F48071C16020684169FA
:1010500041F0010141612068416941F04001416175
:101060000020F8BDFFE70120FBE70220F9E70000C0
:101070006B110008A7110008211100087047704784
:10108000FEE7FEE7704770477047FFF7D3BB0000ED
:1010900010B594B034216846FFF7E8F814210DA884
:1010A000FFF7E4F815480024016841F08051016021
:1010B000006800F0805012901148016821F440410E
:1010C00041F4804101600068069400F440401290B1
:1010D0000220009001200390102004906846FFF742
:1010E00049FD0F20CDE90D040F94109400210DA8A7
:1010F0001194FFF739FC14B010BD000040380240D5
:10110000007000400548016841F470010160034926
:101110004FF00060803908607047000088ED00E003
:1011200070B5846B2068406994F83910C0F3C01022
:101130000025212904D118B1E584204600F046F8A5
:101140002068406994F83A10C0F38010222904D135
:1011500018B1E585204600F02BF8E06B40F0100058
:10116000E0632046FFF7BCFE70BD10B50146806B02
:1011700009680968C90513D40021C1850168CA68D6
:1011800022F48072CA6001684A6922F001024A6151
:1011900001684A6922F040024A61202180F83A1031
:1011A000FFF76CFF10BD10B5806BFFF768FF10BD37
:1011B0000168CA6822F49072CA6001684A6922F024
:1011C00001024A61202180F83A1070470168CA681C
:1011D00022F0C002CA60202180F839107047000058
:1011E0002DE9F041044600680169E26821F44051AC
:1011F000114301612169A068E269084361691143F3
:1012000008432168CA6849F20C639A430243CA60E2
:1012100020684169A26921F4407111434161E0698C
:10122000192764253226B0F5004F354A3549206824
:101230004FF0000806D0884201D0904236D1FFF727
:101240003DFC35E0884201D0904202D1FFF736FCE8
:1012500001E0FFF723FC61684A18A0FB070148EB97
:101260000803FEF7CBFF0146B0FBF5F00201B1FB2E
:10127000F5F06FF01803584301EB800006EBC00057
:10128000B0FBF5F000F0F80002EB4002B1FBF5F026
:10129000584301EB800006EBC000B0FBF5F000F016
:1012A0000700216810448860BDE8F081FFF7F6FB75
:1012B00061688B0F8A00A0FB0701FEF79FFF0146C4
:1012C000B0FBF5F06FF01802504301EB800006EB25
:1012D0000010B0FBF5F000F0F002B1FBF5F002EB0E
:1012E0000012B1FBF5F06FF01803584301EB8000DA
:1012F00006EB0010B0FBF5F000F00F00D1E70000A6
:101300000014014000100140FEE70907090E002803
:1013100004DB00F1E02080F80014704700F00F00BB
:1013200000F1E02080F8141D704702E008C8121F89
:1013300008C1002AFAD170477047002001E001C1BE
:10134000121F002AFBD1704708B5FFF77BFAFFF7A1
:101350009FFE18480024016841F001010160016806
:1013600001F001010091016841F400110160006881
:10137000224600F40010009021461020FFF7C2FA28
:101380001020FFF7B1FA0D480B4901604FF4E1312D
:10139000C0E901140C21C460C0E904418461C46146
:1013A000FFF79FFD064C0A2221460448FFF71AFE6C
:1013B000F9E70000303802400044004010000020EF
:1013C000000800200006101600061016000000009D
:1013D00000000000010203040607080900000000E5
:1013E00001020304041400080000002010000000A3
:1013F0002A1300081414000810000020A0040000A4
:101400003A13000801000000100000000000000076
:041410000024F400C0
:04000005080001C529
:00000001FF
